:100000000C9452000C9400000C9400000C9400001E
:100010000C9400000C9400000C9400000C94000060
:100020000C9400000C9400000C9400000C94000050
:100030000C9400000C9400000C9400000C94000040
:100040000C9400000C9400000C9400000C94000030
:100050000C9400001027E80364000A00010000105F
:100060000001100001003F0006005B004F00660029
:100070006D007D0007007F006F00456E7465722083
:1000800032204469676974203A200025640080C0EA
:10009000130071026600110060027A0002009502EE
:1000A0008E000000F894EE27ECBBF1E0FBBFEBBF45
:1000B000E5BF8DE0A2E0BB27ED938A95E9F780E0EC
:1000C00098E0A0E6ED930197E9F7E0E9F0E085918B
:1000D0009591009761F0A591B59105901590BF019C
:1000E000F00105900D920197E1F7FB01F0CFEFE5EC
:1000F000EDBFE8E0EEBFC0E6D2E00C94E200C498A9
:10010000C59AC69AC79AB09903C0EAE0F0E008958C
:10011000B19903C0E9E0F0E00895B29903C0E8E0C6
:10012000F0E00895B39903C0E7E0F0E00895C49AC1
:10013000C598C69AC79AB09903C0EBE0F0E008955D
:10014000B19903C0E6E0F0E00895B29903C0E5E09C
:10015000F0E00895B39903C0E4E0F0E00895C49A94
:10016000C59AC698C79AB09903C0ECE0F0E008952C
:10017000B19903C0E3E0F0E00895B29903C0E2E072
:10018000F0E00895B39903C0E1E0F0E00895C49A67
:10019000C59AC69AC798B09903C0EDE0F0E00895FB
:1001A000B19903C0EEE0F0E00895B29903C0E0E039
:1001B000F0E00895B39903C0EFE0F0E00895E4E1C2
:1001C000F0E00895EFEFEABBE0EFE7BBEFE0E8BB5C
:1001D000EFEFE4BBEFE7E1BBA0E10E946B03A0E619
:1001E000B2E00E945A038BDF4F01E4E1F0E0E81532
:1001F000F905C9F3A82DA05D0E944303ACE2B1E06C
:100200000E94F5037CDF3F01E4E1F0E0E615F7052D
:10021000C9F3A62DA05D0E944303F401AAE0B0E05B
:100220000E941404E60DF71D2F01A6EBB3E00E9417
:10023000F503879903C0E1E0F0E002C0EFEFFFEFC4
:100240005F01D201EAE0F0E00E9431043F01D201F7
:10025000EAE0F0E00E942C044F01F3010E94B30396
:10026000E5BBF4010E94B303E2BBE5E8F2E0FA93D8
:10027000EA93EBE8F0E0FA93EA93F2010E940704B4
:100280000E94550484E00E94D60228960E943703FB
:10029000A5E8B2E00E945A03A6EBB3E00E94F50382
:1002A0004A0C5B1CE3E6F0E0E415F50514F4442485
:1002B00055240024401450041CF4E3E6F0E02F0120
:1002C000B8CFFFCFBA93AA931A930A93AA81BB819E
:1002D00012960E944D04309759F1AA81BB81149661
:1002E0000E944D048F01309761F00230E0E01E075C
:1002F00098F0F80131978F01AA81BB811496ED9394
:10030000FC93AA81BB811296ED91FD913196FE93EB
:10031000EE933197AC81A083AA81BB810E944D04EA
:10032000FF232AF0ED91FD913196FE93EE9306C0E6
:10033000AA81BB81EFEFFFEFED93FC931981088158
:1003400025960895BA93AA9326970E945A0410E01E
:10035000AC85BD85E0E0F0E0ED93FC93EA89FB8994
:100360003196EA8BFB8B3197E4912E2FE03009F424
:1003700015C1E12FE03039F4253211F411E002C04B
:100380000E94BB030AC1E130A9F4253219F40E948E
:10039000BB0302C112E040E000E02D3211F401E0A5
:1003A000FCC02B3211F44BE2F8C0203211F440E2D1
:1003B000F4C002C0E23039F450E013E0203311F40D
:1003C0000068EBC003C0E33009F0E7C0203310F051
:1003D0002A3308F007C0AAE05A9F502DE22FE053BD
:1003E0005E0FDBC0E22FE33649F40E94C203E889C6
:1003F000F989A481AA930E94C803CEC0E33741F4CF
:100400000E94C2030E94CE030E949A031E2F0AC0BC
:10041000E03761F40E94C2030E94CE030E94A6034B
:100420001E2F086002600F7730E034C0E43611F010
:10043000E93611F4046002C0E53731F4E4E5F0E098
:10044000EE83FF8315E00CC0E83511F4086003C0AB
:10045000E83709F0A1C0EEE5F0E0EE83FF8314E099
:1004600002FF14C00E94C2030E94D803AB85AA23D6
:100470003AF4EA85FB850E940304EA87FB874DE294
:10048000403011F01F5F01C00B7F04C00E94C20307
:100490000E94D80300FD11C0151778F407FF08C0AB
:1004A00002FF04C00B7F242F115001C020E301C0C4
:1004B00020E20E94BB035150EFCF312F01FF17C044
:1004C0003030A1F003FF06C0EE81FF812591EE835D
:1004D000FF8305C0AE81BF812D91AE83BF830E9493
:1004E000BB03503009F051503150EACF4BC020E3EC
:1004F000EE81FF810E945104E887F987EE81FF8138
:100500003296EE83FF83E885F985AA85BB85AE1711
:10051000BF0750F02F5FA885B985EA85FB85EA1BE8
:10052000FB0BEA87FB87EFCF2A3328F003FF02C0DB
:10053000295F01C0295D04FD1AC0213320F4A8857C
:10054000B985119709F409C0531710F000FF01C0D5
:1005500013C020E207FF0BC020E3006102FF07C0C9
:100560000B7F4A930E94C803503009F051500E94FB
:10057000BB03503009F051503150A885B98512970E
:1005800008F0B5CF00FF08C0503031F05150E0E224
:10059000EA930E94C803F8CF10E0E0CEAC85BD8599
:1005A0000E944D040E94610464960895FF92F82E03
:1005B00026970E945C040E94E003309719F4EFEF45
:1005C000FFEF23C0DE0116960E94FF038D010E94FB
:1005D000E003EE83FF83E0E0E887E987DE011A9617
:1005E0000E94FF030E944D04FA93EA931A930A9320
:1005F000E2E6F1E0FA93EA93DE011A96A3DE9F01A8
:10060000AE81BF81E0E0EC93F9010E9463042A9679
:10061000FF900895AA93EBB3EF70AE2FE881E07FCF
:10062000EA2BEBBB8DE08A95F1F7DA9A8DE08A959B
:10063000F1F7DA988DE08A95F1F77AC0AA93A8814C
:10064000E9DFE881E295E883A881E4DF85E88A951F
:10065000F1F76EC0AA93E881F0E0EB56FD4FE08120
:10066000A981AE0FEBDFD980C88022960895A2E061
:100670000E94E703ACE0E2DFA1E00E94E703E0E0D4
:10068000CE2EDE2E0895AA93A881AA3021F0E09103
:100690009902DE1648F0E0E0EA93C394AC2DDADF6D
:1006A000A881AA3009F444C0D394D89AA881C6DF9F
:1006B000D8983EC0BA93AA931A93A981BA81ED91B2
:1006C000A983BA831E2FE03019F0A12FDCDFF5CF0C
:1006D000188123960895AA93EAB3E06FEABBD29AF1
:1006E000D09AD19ADA98D898D998E881E09399026B
:1006F000E058E0939702E881E054E0939802A4E187
:10070000B0E00E94F5030E94ED030E94ED030E94F9
:10071000ED03A0E27FDF88EC90E00197F1F7A8E21B
:100720008DDFA4E08BDFA5E889DFA6E087DF9FDF10
:1007300021960895BA93AA93A991B991EE27FF271C
:100740006D91662311F03196FBCF0895BA93AA9369
:10075000AA27BB27E991F9910590002011F0119685
:10076000FBCFFD010895A1E7B2E0EE0FFF1FAE0F32
:10077000BF1FEC9108952A93AD85BE85EF85F8895A
:1007800009950895E889F9893497E88BF98B0895DC
:10079000AD85BE85EF85F88909950895A889B98941
:1007A00014960E944D04EE83FF83AE81BF810895AD
:1007B000A889B98914960E944D04EA87FB87089599
:1007C000DE011C960E94FF030E944D0408950E94C2
:1007D0001E03A3E0B0E00C94F503A0E30E940A031B
:1007E00088EC90E00197F1F70895109639F0A895FC
:1007F00080ED97E00197F1F71197C9F7089500246C
:10080000AF0DB01D0895F195E195F04008956F2F5B
:10081000660F660B762F0895FA9FF02DEB9FF00D73
:10082000EA9FE02DF10D08952AD0F6DF0EF4EBDFFC
:1008300008950024112490E1AA0FBB1F001C111C75
:100840000E1A1F0A18F40E0E1F1E01C0A1609A9501
:1008500099F7FD01D001089512D0EBDF0EF4D3DF3C
:100860000895E894B7FF04C0A095B09511966894D8
:10087000F7FDC9DFDEDFFD010EF4C5DF0895E89462
:10088000F7FF02C0C0DF6894B7FF06C0A095B0951F
:10089000119600F8039400FA0895ED91FC911197D8
:1008A00008950590F491E02D08957A936A93FA9350
:1008B000EA9308955A934A933A932A931A930A9380
:1008C00008955D814C813B812A81198108810895B9
:00000001FF
